:020000040800F2
:1000000000000220B90000080501000805010008F1
:1000100005010008050100080501000800000000B6
:1000200000000000000000000000000005010008C2
:100030000501000800000000050100080501000896
:1000400000000000000000000000000000000000B0
:1000500000000000000000000000000000000000A0
:100060000000000000000000000000000000000090
:100070000000000000000000000000000000000080
:100080000000000000000000000000000000000070
:100090000000000000000000000000000000000060
:1000A0000000000000000000000000000000000050
:1000B0002B0300085F0300080E490D4A0E4B5B1A24
:1000C00005D012F8014B01F8014B013BF9DC0B495B
:1000D0000B4B5B1A05D04FF0000201F8012B013BDE
:1000E000FBDC4FF000004FF0000102F007FFFEE7DD
:1000F000DC3D000800000020240000202400002037
:10010000400000207047000000B52DE9FF1F1DF1E1
:100110000007DFF80005016841F00F010160DFF81A
:10012000F8040168DFF8F42401EA0201DFF8F024A2
:1001300041EA02010160DFF8EC341968DFF8E824D5
:1001400001EA0201DFF8E42441EA02011960DFF864
:10015000E0341968DFF8DC2401EA0201DFF8D82472
:1001600041EA02011960DFF8D4341968DFF8D024BD
:1001700001EA02011960DFF8CC04016821F0F30103
:100180000160DFF8C4341968DFF8C02401EA020115
:100190001960DFF8BC44216821F40071216004304B
:1001A000043404330168DFF8742401EA0201DFF843
:1001B000A42441EA020101601968DFF89C2401EAE5
:1001C0000201DFF8982441EA020119602168DFF892
:1001D000902401EA0201DFF88C2441EA0201216047
:1001E0000430043404330168DFF8302401EA0201EA
:1001F000DFF82C2441EA020101601968DFF82824A5
:1002000001EA0201DFF8602441EA02011960216875
:10021000DFF8202401EA0201DFF8502441EA02015C
:100220002160DFF84C542968DFF8142401EA020148
:10023000DFF8402441EA02012960BDEB07010022FA
:10024000511A1DEB010D1DF1040DBDE8FE1F00BD8F
:1002500000B52DE9FF1F1DF10007DFF81C140A6827
:100260004FF0010342EA03020A60DFF810144FF076
:1002700000020A60DFF808144FF001020A60DFF89C
:1002800004140860DFF800144FF081020A60FF498F
:100290004FF001020A604FF00001FD4A1160FD4974
:1002A0000A684FF0805343EA02020A60BDEB07017F
:1002B0000022511A1DEB010D1DF1040DBDE8FE1FBA
:1002C00000BD00B52DE9FF1F1DF10007EA490A68CE
:1002D0004FF0020342EA03020A60EF494FF00002C6
:1002E0000A60EE494FF001020A60ED490860ED49ED
:1002F0004FF081020A60EC494FF001020A604FF0B2
:100300000001EA4A1160E3490A684FF0005343EAEA
:1003100002020A60BDEB07010022511A1DEB010D1C
:100320001DF1040DBDE8FE1F00BD00B52DE9FF1F46
:100330001DF100074FF00001D54A116002F024FAC8
:100340004FF00001DA4A1160BDEB07010022511A9B
:100350001DEB010D1DF1040DBDE8FE1F00BD00B534
:100360002DE9FF1F1DF100074FF00001CF4A11607A
:10037000D0490A6801320A604FF00001CE4A11608C
:10038000BDEB07010022511A1DEB010D1DF1040DFB
:10039000BDE8FE1F00BD00B52DE9FF1F1DF10007E0
:1003A000C64CC74DC74E2660C74E2E6020602960E0
:1003B000C64E2E60C64E2E6022602B60C54E2E604B
:1003C000AC4E2E60C44E2660C44E2E60BDEB0701BD
:1003D0000022511A1DEB010D1DF1040DBDE8FE1F99
:1003E00000BD00B52DE9FF1F1DF10007BC49B44A4F
:1003F000BC4BBD4CBD4DBE4EDFF8F8820128DFF886
:10040000F8A200D009E00D6000F0FCF8186800EADE
:100410000A004FEA15450D60ABE00228DFF8DCA2C8
:1004200000D009E00D6000F0EDF8206800EA0A0055
:100430004FEA15450D609CE00328DFF88CA200D040
:1004400009E00D6000F0DEF8186800EA0A004FEAE3
:1004500015450D608DE00428DFF868A200D009E0A2
:100460000D6000F0CFF8186800EA0A004FEA154561
:100470000D607EE00528DFF880A200D009E016605C
:1004800000F0C0F8186800EA0A004FEA1646166045
:100490006FE00628DFF864A200D009E0166000F0E3
:1004A000B1F8206800EA0A004FEA1646166060E0DC
:1004B0000728DFF814A200D009E0166000F0A2F8C7
:1004C000186800EA0A004FEA1646166051E008284C
:1004D000DFF8F0A100D009E0166000F093F818688A
:1004E00000EA0A004FEA1646166042E00928DFF8E3
:1004F00008A200D00BE0C2F8008000F083F8186872
:1005000000EA0A004FEA1848C2F8008031E00A28E1
:10051000DFF8E8A100D00BE0C2F8008000F072F82C
:10052000206800EA0A004FEA1848C2F8008020E07C
:100530000B28DFF894A100D00BE0C2F8008000F097
:1005400061F8186800EA0A004FEA1848C2F800800B
:100550000FE00C28DFF86CA100D00AE0C2F80080A0
:1005600000F050F8186800EA0A004FEA1848C2F88C
:100570000080BDEB07010022511A1DEB010D1DF19A
:10058000040DBDE8FE1F00BD00B52DE9FF1F1DF1E4
:1005900000075B48006800F480504FEA1030BDEB64
:1005A00007010022511A1DEB010D1DF1040DBDE8DC
:1005B000FE1F00BD00B52DE9FF1F1DF100074948D2
:1005C000006800F020004FEA5010BDEB0701002248
:1005D000511A1DEB010D1DF1040DBDE8FE1F00BDFC
:1005E00000B52DE9FF1F1DF1000732480068BDEB83
:1005F00007010022511A1DEB010D1DF1040DBDE88C
:10060000FE1F00BD01B43F4800F101006428FBD18A
:1006100001BC70473038024000000240F000FFFF8C
:10062000055500000008024000F00FFC5505500081
:1006300000040240F0C3F3FF00000400000C02407D
:10064000CFFFFFFF0400024004080240C0F3FFFF99
:10065000040402400AAA000000F00FFFAA0AA0004A
:10066000FFFFF3FF000008005505500105140400CA
:100670000C0C0240100000004038024028000040EE
:100680000C0000402C00004000000040140000401E
:100690001000004000E100E0280400400C0400408D
:1006A0002C040040000400401404004010040040EA
:1006B00024000040000000202404004018000240F4
:1006C0001808024040000000020000000000200066
:1006D00020000000000010000000400000000200A8
:1006E0001804024010040240100C024000000002F6
:1006F00000000004000000080100000004000000E9
:10070000100802400000000043F63002C4F202026A
:10071000116841F00101116043F63002C4F2020297
:10072000116841F00401116040F60002C4F20202B7
:10073000116821F440711160116841F480711160F9
:10074000516821F010015160916821F4407191606D
:10075000916841F400719160D16821F44071D160D9
:10076000D16841F48071D16040F20002C4F202020B
:10077000116821F440511160116841F480511160F9
:10078000516821F040015160916821F4405191601D
:10079000916841F400519160D16821F44051D160D9
:1007A000D16841F48051D16040F60002C4F20202E7
:1007B000116821F440611160116841F48061116099
:1007C000516821F020015160916821F440619160ED
:1007D000916841F400619160D16821F44061D16079
:1007E000D16841F48061D16040F60002C4F2020297
:1007F000116821F00C011160116841F004011160D1
:10080000516821F002015160916821F00C01916062
:10081000916841F008019160D16821F00C01D1602C
:10082000D16841F00401D16040F60002C4F2020236
:10083000116821F030011160116841F01001116060
:10084000516821F004015160916821F030019160FC
:10085000916841F020019160D16821F03001D160B0
:10086000D16841F01001D16040F20002C4F20202EE
:10087000116821F003011160116841F0010111605C
:10088000516821F001015160916821F003019160EC
:10089000916841F002019160D16821F00301D160BB
:1008A000D16841F00101D16040F60002C4F20202B9
:1008B000116821F0C0011160116841F04001116020
:1008C000516821F008015160916821F0C0019160E8
:1008D000916841F080019160D16821F0C001D16040
:1008E000D16841F04001D16040F20002C4F202023E
:1008F000116821F440411160116841F48041116098
:10090000516821F080015160916821F4404191606B
:10091000916841F400419160D16821F44041D16077
:10092000D16841F48041D16040F20002C4F2020279
:10093000116821F440711160116841F480711160F7
:10094000516821F010015160916821F4407191606B
:10095000916841F400719160D16821F44071D160D7
:10096000D16841F48071D16040F60002C4F2020205
:10097000116821F003011160116841F0010111605B
:10098000516821F001015160916821F003019160EB
:10099000916841F002019160D16821F00301D160BA
:1009A000D16841F00101D16040F20002C4F20202BC
:1009B000116821F00C011160116841F0040111600F
:1009C000516821F002015160916821F00C019160A1
:1009D000916841F008019160D16821F00C01D1606B
:1009E000D16841F00401D16040F20002C4F2020279
:1009F000116821F440611160116841F48061116057
:100A0000516821F020015160916821F440619160AA
:100A1000916841F400619160D16821F44061D16036
:100A2000D16841F48061D160704743F63002C4F26E
:100A30000202116841F00201116043F63002C4F273
:100A40000202116841F00401116043F63002C4F261
:100A50000202116841F00801116040F20042C4F244
:100A60000202116821F440211160116841F48021D3
:100A70001160516821F400715160916821F44021A6
:100A80009160916841F400219160D16821F4402186
:100A9000D160D16841F48021D16040F20042C4F2BB
:100AA0000202116821F003011160916821F0030135
:100AB0009160916841F002019160D16821F00301D9
:100AC000D160D16841F00101D16040F60042C4F22A
:100AD0000202116821F030011160916821F03001AB
:100AE0009160916841F020019160D16821F030015E
:100AF000D160D16841F01001D16040F20042C4F2EF
:100B00000202116821F00C011160916821F00C01C2
:100B10009160916841F008019160D16821F00C0169
:100B2000D160D16841F00401D16040F20042C4F2CA
:100B30000202116821F440511160916821F4405182
:100B40009160916841F400519160D16821F4405165
:100B5000D160D16841F48051D16040F60002C4F206
:100B60000202116821F440111160116841F48011F2
:100B70001160516821F480615160916821F4401145
:100B80009160916841F400119160D16821F44011A5
:100B9000D160D16841F48011D16040F60002C4F206
:100BA0000202116821F440011160116841F48001D2
:100BB0001160516821F400615160916821F4400195
:100BC0009160916841F400019160D16821F4400185
:100BD000D160D16841F48001D16040F60002C4F2D6
:100BE0000202116821F040711160916821F040719A
:100BF0009160916841F000719160D16821F040717D
:100C0000D160D16841F08071D16040F20042C4F2FD
:100C10000202116821F440611160916821F4406181
:100C20009160916841F400619160D16821F4406164
:100C3000D160D16841F48061D16040F20042C4F2D9
:100C400002024FF40071916140F60002C4F2020208
:100C50004FF48061916140F60002C4F202024FF449
:100C600000619161704740F60002C4F202024FF445
:100C70008021916140F20002C4F202024FF48031FF
:100C8000916140F60002C4F202024FF4002191612A
:100C900040F20002C4F202024FF40001916140F2FE
:100CA0000002C4F202024FF48011916140F600028A
:100CB000C4F202024FF48031916140F20002C4F2AA
:100CC00002024FF00201916140F20002C4F20202FE
:100CD0004FF02001916140F60002C4F202024FF48D
:100CE0000011916140F60002C4F202024FF02001AF
:100CF0009161704700BF00F00F004FEA800001A231
:100D000052F800F0450D0008D30D0008610E0008F0
:100D1000EF0E00087D0F00080B1000089910000866
:100D200027110008B511000843120008D11200086D
:100D30005F130008ED1300087B1400080915000874
:100D40009715000840F60002C4F202024FF4802119
:100D5000916140F20002C4F202024FF480319161CD
:100D600040F60002C4F202024FF40021916140F209
:100D70000002C4F202024FF40001916140F200024D
:100D8000C4F202024FF48011916140F60002C4F2F5
:100D900002024FF48031916140F20002C4F202027B
:100DA0004FF00201916140F20002C4F202024FF0E2
:100DB0002001916140F60002C4F202024FF40011DA
:100DC000916140F60002C4F202024FF020019161ED
:100DD000704740F60002C4F202024FF00401916134
:100DE00040F20002C4F202024FF48031916140F6F9
:100DF0000002C4F202024FF40021916140F20002AD
:100E0000C4F202024FF08001916140F20002C4F28C
:100E100002024FF01001916140F60002C4F202029A
:100E20004FF00101916140F20002C4F202024FF062
:100E30000201916140F20002C4F202024FF020016F
:100E4000916140F60002C4F202024FF40011916178
:100E500040F60002C4F202024FF020019161704797
:100E600040F60002C4F202024FF48021916140F288
:100E70000002C4F202024FF48031916140F6000298
:100E8000C4F202024FF00801916140F20002C4F284
:100E900002024FF40001916140F20002C4F202022A
:100EA0004FF48011916140F60002C4F202024FF04B
:100EB0000101916140F20002C4F202024FF40031DC
:100EC000916140F20002C4F202024FF020019161F0
:100ED00040F60002C4F202024FF40011916140F6A4
:100EE0000002C4F202024FF020019161704740F607
:100EF0000002C4F202024FF48021916140F200022C
:100F0000C4F202024FF48031916140F60002C4F253
:100F100002024FF40021916140F20002C4F2020289
:100F20004FF40001916140F20002C4F202024FF05E
:100F30001001916140F60002C4F202024FF001017B
:100F4000916140F20002C4F202024FF4003191615B
:100F500040F20002C4F202024FF02001916140F61B
:100F60000002C4F202024FF40011916140F6000247
:100F7000C4F202024FF020019161704740F6000276
:100F8000C4F202024FF00401916140F20002C4F287
:100F900002024FF48031916140F60002C4F2020275
:100FA0004FF40021916140F20002C4F202024FF0BE
:100FB0008001916140F20002C4F202024FF0100180
:100FC000916140F60002C4F202024FF48031916157
:100FD00040F20002C4F202024FF40031916140F28B
:100FE0000002C4F202024FF02001916140F60002BB
:100FF000C4F202024FF40011916140F60002C4F203
:1010000002024FF020019161704740F60002C4F2E5
:1010100002024FF48021916140F20002C4F2020208
:101020004FF00101916140F60002C4F202024FF458
:101030000021916140F20002C4F202024FF400016B
:10104000916140F20002C4F202024FF0100191617E
:1010500040F60002C4F202024FF48031916140F286
:101060000002C4F202024FF40031916140F200022A
:10107000C4F202024FF02001916140F60002C4F276
:1010800002024FF40011916140F60002C4F2020224
:101090004FF020019161704740F60002C4F2020255
:1010A0004FF48021916140F20002C4F202024FF03D
:1010B0000101916140F60002C4F202024FF40021E6
:1010C000916140F20002C4F202024FF4000191610A
:1010D00040F20002C4F202024FF48011916140F626
:1010E0000002C4F202024FF48031916140F200022A
:1010F000C4F202024FF40031916140F20002C4F2E6
:1011000002024FF02001916140F60002C4F2020297
:101110004FF40011916140F60002C4F202024FF058
:1011200020019161704740F60002C4F202024FF4C0
:101130008021916140F20002C4F202024FF480313A
:10114000916140F60002C4F202024FF40021916165
:1011500040F20002C4F202024FF08001916140F2BD
:101160000002C4F202024FF01001916140F6000249
:10117000C4F202024FF00101916140F20002C4F298
:1011800002024FF00201916140F20002C4F2020239
:101190004FF02001916140F60002C4F202024FF4C8
:1011A0000011916140F60002C4F202024FF02001EA
:1011B0009161704740F60002C4F202024FF48021B0
:1011C000916140F20002C4F202024FF48031916159
:1011D00040F60002C4F202024FF40021916140F295
:1011E0000002C4F202024FF40001916140F20002D9
:1011F000C4F202024FF48011916140F60002C4F281
:1012000002024FF48031916140F20002C4F2020206
:101210004FF40031916140F20002C4F202024FF03B
:101220002001916140F60002C4F202024FF4001165
:10123000916140F60002C4F202024FF02001916178
:10124000704740F60002C4F202024FF4802191611F
:1012500040F20002C4F202024FF48031916140F684
:101260000002C4F202024FF40021916140F2000238
:10127000C4F202024FF40001916140F20002C4F294
:1012800002024FF01001916140F60002C4F2020226
:101290004FF48031916140F20002C4F202024FF437
:1012A0000031916140F20002C4F202024FF02001CD
:1012B000916140F60002C4F202024FF40011916104
:1012C00040F60002C4F202024FF020019161704723
:1012D00040F60002C4F202024FF48021916140F214
:1012E0000002C4F202024FF48031916140F6000224
:1012F000C4F202024FF40021916140F20002C4F2F4
:1013000002024FF08001916140F20002C4F2020239
:101310004FF48011916140F60002C4F202024FF4D2
:101320008031916140F20002C4F202024FF40031B8
:10133000916140F20002C4F202024FF0200191617B
:1013400040F60002C4F202024FF40011916140F62F
:101350000002C4F202024FF020019161704740F692
:101360000002C4F202024FF00401916140F2000257
:10137000C4F202024FF00101916140F60002C4F292
:1013800002024FF40021916140F20002C4F2020215
:101390004FF40001916140F20002C4F202024FF4E6
:1013A0008011916140F60002C4F202024FF48031D4
:1013B000916140F20002C4F202024FF400319161E7
:1013C00040F20002C4F202024FF02001916140F6A7
:1013D0000002C4F202024FF40011916140F60002D3
:1013E000C4F202024FF020019161704740F6000202
:1013F000C4F202024FF00401916140F20002C4F213
:1014000002024FF00101916140F60002C4F20202B3
:101410004FF00801916140F20002C4F202024FF461
:101420000001916140F20002C4F202024FF4801107
:10143000916140F60002C4F202024FF00101916195
:1014400040F20002C4F202024FF40031916140F216
:101450000002C4F202024FF02001916140F6000246
:10146000C4F202024FF40011916140F60002C4F28E
:1014700002024FF020019161704740F60002C4F271
:1014800002024FF00401916140F20002C4F2020234
:101490004FF48031916140F60002C4F202024FF431
:1014A0000021916140F20002C4F202024FF40001F7
:1014B000916140F20002C4F202024FF48011916186
:1014C00040F60002C4F202024FF00101916140F2C5
:1014D0000002C4F202024FF40031916140F20002B6
:1014E000C4F202024FF02001916140F60002C4F202
:1014F00002024FF40011916140F60002C4F20202B0
:101500004FF020019161704740F60002C4F20202E0
:101510004FF48021916140F20002C4F202024FF0C8
:101520000101916140F60002C4F202024FF008018D
:10153000916140F20002C4F202024FF40001916195
:1015400040F20002C4F202024FF48011916140F6B1
:101550000002C4F202024FF48031916140F20002B5
:10156000C4F202024FF40031916140F20002C4F271
:1015700002024FF02001916140F60002C4F2020223
:101580004FF40011916140F60002C4F202024FF0E4
:1015900020019161704740F60002C4F202024FF44C
:1015A0008021916140F20002C4F202024FF0010179
:1015B000916140F60002C4F202024FF0080191610D
:1015C00040F20002C4F202024FF08001916140F249
:1015D0000002C4F202024FF48011916140F6000251
:1015E000C4F202024FF48031916140F20002C4F271
:1015F00002024FF40031916140F20002C4F2020293
:101600004FF02001916140F60002C4F202024FF453
:101610000011916140F60002C4F202024FF0200175
:101620009161704700F007004FEA800001A252F874
:1016300000F000BF55160008E316000871170008F7
:10164000FF1700088D1800081B190008A9190008C9
:10165000371A000840F20002C4F202024FF0800183
:10166000916140F20002C4F202024FF01001916158
:1016700040F20002C4F202024FF02001916140F2F8
:101680000002C4F202024FF00101916140F2000237
:10169000C4F202024FF00201916140F60002C4F26E
:1016A00002024FF00801916140F60002C4F202020A
:1016B0004FF00101916140F60002C4F202024FF4C2
:1016C0008021916140F60002C4F202024FF48011C1
:1016D000916140F60002C4F202024FF010019161E4
:1016E000704740F20002C4F202024FF080019161A3
:1016F00040F20002C4F202024FF01001916140F288
:101700000002C4F202024FF02001916140F2000297
:10171000C4F202024FF00101916140F20002C4F2F2
:1017200002024FF00201916140F60002C4F202028F
:101730004FF00801916140F60002C4F202024FF43A
:101740008031916140F60002C4F202024FF00401C0
:10175000916140F60002C4F202024FF480119161DF
:1017600040F60002C4F202024FF01001916170478E
:1017700040F20002C4F202024FF08001916140F297
:101780000002C4F202024FF01001916140F2000227
:10179000C4F202024FF02001916140F20002C4F253
:1017A00002024FF00101916140F20002C4F2020214
:1017B0004FF00201916140F60002C4F202024FF4C0
:1017C0000021916140F60002C4F202024FF00101D3
:1017D000916140F60002C4F202024FF004019161EF
:1017E00040F60002C4F202024FF48011916140F60B
:1017F0000002C4F202024FF010019161704740F202
:101800000002C4F202024FF08001916140F2000236
:10181000C4F202024FF01001916140F20002C4F2E2
:1018200002024FF02001916140F20002C4F2020274
:101830004FF00101916140F20002C4F202024FF444
:101840000031916140F60002C4F202024FF008013B
:10185000916140F60002C4F202024FF00101916171
:1018600040F60002C4F202024FF00401916140F61A
:101870000002C4F202024FF48011916140F60002AE
:10188000C4F202024FF010019161704740F2000271
:10189000C4F202024FF08001916140F20002C4F2F2
:1018A00002024FF01001916140F20002C4F2020204
:1018B0004FF02001916140F20002C4F202024FF4A5
:1018C0008031916140F20002C4F202024FF0020145
:1018D000916140F60002C4F202024FF008019161EA
:1018E00040F60002C4F202024FF00101916140F69D
:1018F0000002C4F202024FF00401916140F60002BE
:10190000C4F202024FF48011916140F60002C4F269
:1019100002024FF010019161704740F20002C4F2E0
:1019200002024FF08001916140F20002C4F2020213
:101930004FF01001916140F20002C4F202024FF434
:101940000011916140F20002C4F202024FF0010165
:10195000916140F20002C4F202024FF00201916173
:1019600040F60002C4F202024FF00801916140F615
:101970000002C4F202024FF00101916140F6000240
:10198000C4F202024FF00401916140F60002C4F279
:1019900002024FF48011916140F60002C4F202028B
:1019A0004FF010019161704740F20002C4F2020250
:1019B0004FF08001916140F20002C4F202024FF444
:1019C0008011916140F20002C4F202024FF0200146
:1019D000916140F20002C4F202024FF001019161F4
:1019E00040F20002C4F202024FF00201916140F69F
:1019F0000002C4F202024FF00801916140F60002B9
:101A0000C4F202024FF00101916140F60002C4F2FB
:101A100002024FF00401916140F60002C4F202029A
:101A20004FF48011916140F60002C4F202024FF0BF
:101A300010019161704740F20002C4F202024FF4BB
:101A40000001916140F20002C4F202024FF0100165
:101A5000916140F20002C4F202024FF02001916154
:101A600040F20002C4F202024FF00101916140F223
:101A70000002C4F202024FF00201916140F600023E
:101A8000C4F202024FF00801916140F60002C4F274
:101A900002024FF00101916140F60002C4F202021D
:101AA0004FF00401916140F60002C4F202024FF4CB
:101AB0008011916140F60002C4F202024FF0100161
:101AC0009161704700F00F004FEA800001A252F8C8
:101AD00000F000BF151B00081B1B00084B1B000873
:101AE0007B1B0008AB1B0008DB1B00080B1C00085D
:101AF0003B1C00086B1C00089B1C0008CB1C00084A
:101B0000FB1C00082B1D0008151B0008151B0008F6
:101B1000151B00084FF00100704740F20042C4F26C
:101B200002024FF00071916140F20042C4F20202E1
:101B3000106910F001004FEA000040F20042C4F2C8
:101B400002024FF400719161704740F20042C4F20A
:101B500002024FF00071916140F60042C4F20202AD
:101B6000106910F004004FEA900040F20042C4F205
:101B700002024FF400719161704740F20042C4F2DA
:101B800002024FF00071916140F20042C4F2020281
:101B9000106910F002004FEA500040F20042C4F217
:101BA00002024FF400719161704740F20042C4F2AA
:101BB00002024FF00071916140F20042C4F2020251
:101BC000106910F040004FEA901040F20042C4F259
:101BD00002024FF400719161704740F60002C4F2B6
:101BE00002024FF08061916140F20042C4F20202B1
:101BF000106910F001004FEA000040F60002C4F244
:101C000002024FF480619161704740F60002C4F215
:101C100002024FF08061916140F60042C4F202027C
:101C2000106910F004004FEA900040F60002C4F280
:101C300002024FF480619161704740F60002C4F2E5
:101C400002024FF08061916140F20042C4F2020250
:101C5000106910F002004FEA500040F60002C4F292
:101C600002024FF480619161704740F60002C4F2B5
:101C700002024FF08061916140F20042C4F2020220
:101C8000106910F040004FEA901040F60002C4F2D4
:101C900002024FF480619161704740F60002C4F285
:101CA00002024FF00061916140F20042C4F2020270
:101CB000106910F001004FEA000040F60002C4F283
:101CC00002024FF400619161704740F60002C4F2D5
:101CD00002024FF00061916140F60042C4F202023C
:101CE000106910F004004FEA900040F60002C4F2C0
:101CF00002024FF400619161704740F60002C4F2A5
:101D000002024FF00061916140F20042C4F202020F
:101D1000106910F002004FEA500040F60002C4F2D1
:101D200002024FF400619161704740F60002C4F274
:101D300002024FF00061916140F20042C4F20202DF
:101D4000106910F040004FEA901040F60002C4F213
:101D500002024FF400619161704740F20002C4F248
:101D600002024FF08001916140F20002C4F20202CF
:101D70004FF01001916140F20002C4F202024FF0F4
:101D80002001916140F20002C4F202024FF0010111
:101D9000916140F20002C4F202024FF0020191612F
:101DA00040F60002C4F202024FF00801916140F6D1
:101DB0000002C4F202024FF00101916140F60002FC
:101DC000C4F202024FF48021916140F60002C4F295
:101DD00002024FF48011916140F60002C4F2020247
:101DE0004FF010019161704740F20002C4F202020C
:101DF0004FF48001916140F60002C4F202024FF4F8
:101E000000319161704740F20002C4F202024FF0CB
:101E10004001916140F60002C4F202024FF002015B
:101E20009161704743F63002C4F20202116841F03A
:101E30000801116040F60042C4F20202116821F06C
:101E400040711160116841F080711160516821F496
:101E500080515160916821F040719160916841F02A
:101E600000719160D16821F04071D160D16841F07A
:101E70008071D16040F60042C4F20202116821F084
:101E800040411160116841F080411160516821F4B6
:101E900000415160916821F040419160916841F0AA
:101EA00000419160D16821F04041D160D16841F09A
:101EB0008041D16040F60042C4F20202116821F074
:101EC00040611160116841F080611160516821F436
:101ED00000515160916821F040619160916841F03A
:101EE00000619160D16821F04061D160D16841F01A
:101EF0008061D16040F60042C4F20202116821F014
:101F000040511160116841F080511160516821F415
:101F100080415160916821F040519160916841F099
:101F200000519160D16821F04051D160D16841F0F9
:101F30008051D16040F60042C4F20202116821F0E3
:101F400040411160116841F080411160516821F4F5
:101F500000415160916821F040419160916841F0E9
:101F600000419160D16821F04041D160D16841F0D9
:101F70008041D160704743F63002C4F2020211681A
:101F800041F00101116040F20002C4F20202116846
:101F900021F003011160916821F0030191609168C3
:101FA00041F002019160D16821F00301D1607047D6
:101FB00040F60042C4F202024FF480519161704732
:101FC00040F60042C4F202024FF4005191617047A2
:101FD00040F60042C4F202024FF480419161704722
:101FE00040F60042C4F202024FF400419161704792
:101FF00040F60042C4F202024FF0805191617047F6
:1020000040F60042C4F202024FF000519161704765
:1020100040F60042C4F202024FF0804191617047E5
:1020200040F60042C4F202024FF000419161704755
:1020300040F20002C4F20202106910F001004FEAFF
:102040000000704741F2AF20CAF6CD3045F278600B
:10205000C1F2342040F20000C0F2000040F07800ED
:1020600040F4AC4040F4501040F090504FF6FF70F8
:10207000CFF6FF7020F0780020F4AC4020F4501030
:1020800020F0905040F0000040F0000040F00000D0
:1020900040F0807020F0000020F0000020F00000F0
:1020A00020F08070704743F63002C4F202021168DB
:1020B00041F00801116040F60042C4F202021168CA
:1020C00021F0000121F0000121F0000121F07F4109
:1020D000116040F60042C4F20202116841F00001B2
:1020E00041F0000141F0000141F0AA41116040F6C9
:1020F0000442C4F20202116821F0000121F470418F
:1021000021F0000121F00001116040F60842C4F204
:102110000202116821F0000121F0000121F000010C
:1021200021F07F41116040F60842C4F202021168BA
:1021300041F0000141F0000141F0000141F02A416D
:10214000116040F60C42C4F20202116821F0000155
:1021500021F0000121F0000121F07F41116040F6E3
:102160000C42C4F20202116841F0000141F000018A
:1021700041F0000141F0AA411160704743F630027E
:10218000C4F20202116841F00101116040F2000244
:10219000C4F20202116821F0030121F0000121F0D4
:1021A000000121F00001116040F20802C4F20202B5
:1021B000116821F0030121F0000121F0000121F05C
:1021C0000001116040F20802C4F20202116841F0FD
:1021D000020141F0000141F0000141F000011160F5
:1021E00040F20C02C4F20202116821F0030121F056
:1021F000000121F0000121F000011160704700BFD3
:1022000080B487B000AF4FF000033B614FF0000394
:102210007B614FF00203FB604FF00003BB604FF0A7
:1022200002037B604FF46053C4F202039B6803F027
:102230000C033B613B69042B0DD0082B15D0002B00
:1022400069D140F24003C2F200034FF41052C0F2D1
:10225000F4021A6069E040F24003C2F2000347F65C
:102260004002C0F27D121A605FE04FF46053C4F286
:1022700002035B6803F480034FEA9353BB604FF49F
:102280006053C4F202035B6803F03F037B60BB68EA
:10229000002B14D047F64003C0F27D137A68B3FBDD
:1022A000F2F24FF46053C4F20203596847F6C07368
:1022B0000B404FEA931303FB02F37B6113E04FF4EF
:1022C0001053C0F2F4037A68B3FBF2F24FF4605398
:1022D000C4F20203596847F6C0730B404FEA9313E8
:1022E00003FB02F37B614FF46053C4F202035B68AB
:1022F00003F440334FEA134303F101034FEA43036E
:10230000FB607A69FB68B2FBF3F240F24003C2F271
:1023100000031A6009E040F24003C2F200034FF4E8
:102320001052C0F2F4021A6000BF07F11C07BD464C
:1023300080BC704780B400AF42F25003C2F2000389
:102340001B6803F1010242F25003C2F200031A605B
:10235000BD4680BC704700BF80B485B000AF7860D8
:1023600042F24533C0F20103FB6000BFFB68002B63
:102370000CBF00230123DBB2FA6802F1FF32FA60DE
:10238000002BF3D107F11407BD4680BC704700BF96
:1023900080B584B000AF786039604FF00003BB6057
:1023A0004FF00003FB607B68112B00F2618101A2FA
:1023B00052F823F0FD2300081F24000845240008DC
:1023C0006B24000891240008B7240008D9240008D1
:1023D000FB24000821250008432500086525000886
:1023E000A52500084F26000887250008C7250008F6
:1023F000E92500080B2600082D26000807F1080330
:102400003868194600F038F9BA68FB684FF02200C6
:10241000C0F291004FF45021FDF7BDFF28E107F114
:1024200008033868194600F027F9BA68FB684FF0CE
:10243000B200C0F201004FF00501C0F20801FDF743
:10244000AAFF15E107F108033868194600F014F9EE
:10245000BA68FB684FF02000C0F293004FF009010A
:10246000C0F20501FDF797FF02E107F108033868A4
:10247000194600F001F9BA68FB684FF03000C0F26D
:1024800083004FF00101C0F20C01FDF784FFEFE083
:1024900007F108033868194600F0EEF8BA68FB68DF
:1024A0004FF0B000C0F203004FF00401C0F2090188
:1024B000FDF771FFDCE007F108033868194600F00A
:1024C000DBF8BA68FB684FF03100C0F282004FF4CD
:1024D0005021FDF760FFCBE007F10803386819468B
:1024E00000F0CAF8BA68FB684FF02100C0F2920011
:1024F0004FF45021FDF74FFFBAE007F108033868A9
:10250000194600F0B9F8BA68FB684FF0B200C0F2A3
:1025100001004FF00101C0F20C01FDF73CFFA7E004
:1025200007F108033868194600F0A6F8BA68FB6896
:102530004FF02000C0F293004FF45021FDF72BFF25
:1025400096E007F108033868194600F095F8BA6874
:10255000FB684FF03000C0F283004FF45021FDF7CC
:102560001AFF85E007F108033868194600F084F87F
:10257000BA68FB684FF0B3004FF00501C0F20801E4
:10258000FDF709FF74E007F108033868194600F009
:1025900073F8BA68FB684FF0B3004FF00D01FDF718
:1025A000FAFE65E007F108033868194600F064F8A0
:1025B000BA68FB684FF0B3004FF00401C0F20101AC
:1025C000FDF7E9FE54E007F108033868194600F00A
:1025D00053F8BA68FB684FF02200C0F201004FF0D8
:1025E0000D01FDF7D8FE43E007F1080338681946EE
:1025F00000F042F8BA68FB684FF00300C0F2200018
:102600004FF00D01FDF7C7FE32E007F1080338680F
:10261000194600F031F8BA68FB684FF0B3004FF08C
:102620000101C0F20401FDF7B6FE21E007F1080345
:102630003868194600F020F8BA68FB684FF02100AE
:10264000C0F202004FF00D01FDF7A5FE10E007F10A
:1026500008033868194600F00FF8BA68FB684FF0B5
:10266000B100C0F202004FF00D01FDF794FE00BF73
:1026700007F11007BD4680BD80B483B000AF78601D
:1026800039607B68072B79D801A252F823F000BF8C
:10269000B1260008C7260008E1260008FB2600082E
:1026A000152700082F27000849270008632700087E
:1026B0003B684FF033021A603B6803F104034FF0AC
:1026C0000D021A605AE03B684FF033021A603B6813
:1026D00003F104024FF00C03C0F2010313604DE05C
:1026E0003B684FF033021A603B6803F104024FF07D
:1026F0000503C0F20803136040E03A684FF031036D
:10270000C0F2020313603B6803F104034FF00D02B3
:102710001A6033E03A684FF03203C0F201031360ED
:102720003B6803F104034FF00D021A6026E03A689B
:102730004FF02303C0F2100313603B6803F104035E
:102740004FF00D021A6019E03A684FF01303C0F21F
:10275000200313603B6803F104034FF00D021A607D
:102760000CE03B684FF033021A603B6803F104024F
:102770004FF00903C0F20403136000BF07F10C0718
:10278000BD4680BC704700BF80B500AF40F23C033F
:10279000C2F2000319684CF6CD43CCF6CC43A3FB40
:1027A00001234FEA930213464FEA83039B18CA1A88
:1027B00002F1010240F23C03C2F200031A6040F24F
:1027C0003C03C2F200031B6803F1FF3240F2100326
:1027D000C2F2000353F8222040F23C03C2F200038D
:1027E0001B6810461946FFF7D3FD40F23C03C2F2C6
:1027F00000031B6803F1010240F23C03C2F2000334
:102800001A6080BD80B487B000AF78604FF00003DD
:102810007B614FF003033B614FF00003FB6031E04D
:102820003B694FEA83037A68D3181B680C2B04D1E9
:102830007B69C3F100037B6130E03B694FEA8303AE
:102840007A68D3181B68BB604FF00003FB600BE095
:10285000BA6813464FEA83039B184FEA4303BB60F1
:10286000FB6803F10103FB603B69C3F10302FB68F2
:102870009A42EDDC7A69BB68D3187B613B6903F14E
:10288000FF333B613B69B3F1FF3F07D03B694FEA40
:1028900083037A68D3181B680D2BC1D17B69184656
:1028A00007F11C07BD4680BC704700BF90B486B0DE
:1028B00000AF786039604FF000037B614FF0000398
:1028C000BB603B683B614FF00103FB603B69002B41
:1028D00003DA3B69C3F100033B614FF003037B6103
:1028E00044E0FA6813464FEA83039B184FEA430318
:1028F000FB607B694FEA83037A68D2183B69F96809
:1029000093FBF1F1F86800FB01F15B1A13603A697F
:102910007B694FEA83037968CB181B68D31A3B6144
:102920007B694FEA83037A68D1187B694FEA830396
:102930007A68D3181868FA6846F26763C6F2666365
:1029400083FB02C34FEAA3044FEAE273E31AB0FB2E
:10295000F3F30B603B69002B04D17B6903F1FF3378
:102960007B6106E07B6903F1FF337B617B69002BB0
:10297000B7DA3B68002B18DA7B694FEA83037A6881
:10298000D3184FF00C021A607B6903F1FF337B61AF
:102990000BE07B694FEA83037A68D3184FF00D028E
:1029A0001A607B6903F1FF337B617B69002BF0DAEE
:1029B00007F11807BD4690BC704700BF80B584B0D2
:1029C00000AF786039607868FFF71CFF0346FB6052
:1029D000FA683B68D31AFB607868F968FFF766FF0E
:1029E00007F11007BD4680BD80B584B000AF7860A8
:1029F00039607868FFF706FF0346FB60FA683B68BA
:102A0000D318FB607868F968FFF750FF07F11007EB
:102A1000BD4680BD80B485B000AF786039604FF0AE
:102A20000003FB6040F23103C2F200031B78062B67
:102A300000F21B8101A252F823F000BF592A0008BE
:102A4000A32A0008ED2A0008372B0008872B00086E
:102A5000D12B00081B2C00087B68002B0AD13B6897
:102A6000002B07D040F23103C2F200034FF0010205
:102A70001A7015E07B68002B0AD03B68002B07D149
:102A800040F23103C2F200034FF004021A7007E073
:102A900040F23103C2F200034FF000021A70E4E08A
:102AA000E3E07B68002B0AD13B68002B07D040F2A3
:102AB0003103C2F200034FF001021A7015E07B6887
:102AC000002B0AD13B68002B07D140F23103C2F240
:102AD00000034FF002021A7007E040F23103C2F225
:102AE00000034FF000021A70BFE0BEE07B68002BCD
:102AF0000AD13B68002B07D140F23103C2F2000338
:102B00004FF002021A7015E07B68002B0AD03B6878
:102B1000002B07D140F23103C2F200034FF0030251
:102B20001A7007E040F23103C2F200034FF00002D6
:102B30001A709AE099E07B68002B0AD03B68002B62
:102B400007D140F23103C2F200034FF003021A70C2
:102B500018E07B68002B0DD03B68002B0AD040F2B8
:102B60003103C2F200034FF000021A704FF001036C
:102B7000FB6007E040F23103C2F200034FF00002B5
:102B80001A7072E071E07B68002B0AD03B68002B62
:102B900007D140F23103C2F200034FF004021A7071
:102BA00015E07B68002B0AD13B68002B07D140F26F
:102BB0003103C2F200034FF005021A7007E040F241
:102BC0003103C2F200034FF000021A704DE04CE0F6
:102BD0007B68002B0AD13B68002B07D140F2310300
:102BE000C2F200034FF005021A7015E07B68002B5B
:102BF0000AD13B68002B07D040F23103C2F2000338
:102C00004FF006021A7007E040F23103C2F20003EF
:102C10004FF000021A7028E027E07B68002B0AD1F1
:102C20003B68002B07D040F23103C2F200034FF0A3
:102C300006021A7018E07B68002B0DD03B68002B51
:102C40000AD040F23103C2F200034FF000021A70C2
:102C50004FF0FF33FB6007E040F23103C2F20003A4
:102C60004FF000021A70FFE700BFFB68184607F13B
:102C70001407BD4680BC704780B584B000AF786053
:102C80004FF09603FB60FDF7ABFC0346BB60FB68AF
:102C90004FEA4302BB68B3FBF2F102FB01F29B1A5D
:102CA000002B0DD17B6803F110034FF00E021A6068
:102CB00040F21003C2F200034FF00E021A6116E058
:102CC000BB68FA68B3FBF2F2F96801FB02F29B1AE7
:102CD000002B0CD17B6803F110034FF00D021A603A
:102CE00040F21003C2F200034FF00D021A6107F127
:102CF0001007BD4680BD00BF80B586B000AF7860CC
:102D0000FDF76EFC02467B68D21A4BF2C533C9F25E
:102D1000A213A3FB02134FEA53237B614FF46172AA
:102D20007B69B2FBF3F33B613B694FEA5303FB6002
:102D3000FDF756FC024640F23803C2F200031B685E
:102D4000D318BB6040F23403C2F200031B687A69F7
:102D50009A4230D040F21003C2F200031B69102BDC
:102D600007D140F21003C2F200034FF00D021A61C6
:102D70000DE040F21003C2F200031B690D2B06D1D7
:102D800040F21003C2F200034FF010021A61BB6858
:102D90003A69B3FBF2F2396901FB02F29A1A40F286
:102DA0003803C2F200031B68D21840F23803C2F2A3
:102DB00000031A6023E0FB684FEA4302BB68B3FBE1
:102DC000F2F102FB01F29B1A002B07D140F2100333
:102DD000C2F200034FF010021A6110E0BB68FA68FB
:102DE000B3FBF2F2F96801FB02F29B1A002B06D149
:102DF00040F21003C2F200034FF00D021A6140F2DC
:102E00003403C2F200037A691A6007F11807BD465D
:102E100080BD00BF80B483B000AF78607B684FF0A6
:102E20000D021A607B6803F104034FF00C021A6074
:102E30007B6803F108034FF001021A607B6803F11D
:102E40000C034FF000021A6007F10C07BD4680BC6E
:102E5000704700BF80B400AF40F21003C2F200031D
:102E60004FF00D02DA6040F21003C2F20003DA689C
:102E700040F21003C2F200039A6040F21003C2F263
:102E800000039A6840F21003C2F200035A6040F255
:102E90001003C2F200035A6840F21003C2F20003AA
:102EA0001A60BD4680BC704780B400AF40F210038A
:102EB000C2F200034FF00002DA6040F21003C2F2E7
:102EC0000003DA6840F21003C2F200039A6040F295
:102ED0001003C2F200039A6840F21003C2F200032A
:102EE0005A6040F21003C2F200035A6840F2100325
:102EF000C2F200031A60BD4680BC7047B0B5A4B0F2
:102F000000AF4FF00003C7F88C304FF00003C7F854
:102F100088304FF00003C7F884304FF00003C7F843
:102F200080304FF00003FB674FF00003BB6740F2B7
:102F30004403C2F200034FF001021A6042F24C0354
:102F4000C2F200034FF000021A6043F6B453C0F619
:102F5000000307F118041D460FCD0FC42B68236032
:102F60004FF001037B644FF001033B644FF000031B
:102F7000FB634FF000037B674FF001033B674FF0AB
:102F80000203FB66FB6EBB664FF000037B6643F6F5
:102F9000C853C0F6000307F104041D460FCD0FC44B
:102FA0002B6823604FF000033B664FF00003FB6586
:102FB0004FF00003BB65FDF7A7F84FF48740FDF71E
:102FC00047F944F24440FDF77CF900E000BF7B6F15
:102FD000002B25D14FF00103BB651EE0BB6D1846E9
:102FE000FDF7FFF90346002B13D14FF001037B6778
:102FF0004FF000033B674FF00003FB6503E0FB6D00
:1030000003F10103FB65FA6D40F2DB539A42F6DDF2
:1030100006E0BB6D03F10103BB65BB6D0C2BDDDD71
:103020007B6F002B16D0BB6D1846FDF7DAF903460F
:10303000002B0FD04FF000037B674FF00003FB65C0
:1030400003E0FB6D03F10103FB65FA6D40F2DB5316
:103050009A42F6DD3B6F002B40F03A844FF00103BB
:103060003B67BB6D03F1FF330B2B00F2318401A2F0
:1030700052F823F0A530000805310008553100084A
:10308000B53100080532000865320008B532000885
:103090001533000865330008CD330008D13400082B
:1030A0006F370008FB6E012B40F0FB8340F24403B6
:1030B000C2F200031B68002B00F0F383D7F88430C2
:1030C000002B40F0EE837B6803F101014CF6CD4309
:1030D000CCF6CC43A3FB01234FEAD30213464FEABD
:1030E00083039B184FEA4303CA1A7A607A6840F256
:1030F0001003C2F200031A6007F118031846FFF725
:1031000089FECEE3FB6E012B40F0CD8340F24403F9
:10311000C2F200031B68002B00F0C583D7F884308F
:10312000002B40F0C0837B68002B03D14FF00903D4
:103130007B6003E07B6803F1FF337B607A6840F2D9
:103140001003C2F200031A6007F118031846FFF7D4
:1031500061FEA8E3FB6E012B40F0A78340F244031D
:10316000C2F200031B68002B00F09F83D7F8843065
:10317000002B40F09A8307F118031846FFF74AFE28
:10318000BB6803F101014CF6CD43CCF6CC43A3FB65
:1031900001234FEAD30213464FEA83039B184FEAF9
:1031A0004303CA1ABA60BA6840F21003C2F20003BD
:1031B0005A607AE3FB6E012B40F0798340F24403BE
:1031C000C2F200031B68002B00F07183D7F8843033
:1031D000002B40F06C8307F118031846FFF71AFE26
:1031E000BB68002B03D14FF00903BB6003E0BB6851
:1031F00003F1FF33BB60BA6840F21003C2F2000370
:103200005A6054E3FB6E012B40F0538340F24403B9
:10321000C2F200031B68002B00F04B83D7F8843008
:10322000002B40F0468307F118031846FFF7F2FD24
:10323000FB6803F101014CF6CD43CCF6CC43A3FB74
:1032400001234FEAD30213464FEA83039B184FEA48
:103250004303CA1AFA60FA6840F21003C2F200038C
:103260009A6026E3FB6E012B40F0258340F2440375
:10327000C2F200031B68002B00F01D83D7F88430D6
:10328000002B40F0188307F118031846FFF7C2FD22
:10329000FB68002B03D14FF00903FB6003E0FB68E0
:1032A00003F1FF33FB60FA6840F21003C2F200033F
:1032B0009A6000E3FB6E012B40F0FF8240F2440372
:1032C000C2F200031B68002B00F0F782D7F88430AD
:1032D000002B40F0F28207F118031846FFF79AFD21
:1032E0003B6903F101014CF6CD43CCF6CC43A3FB83
:1032F00001234FEAD30213464FEA83039B184FEA98
:103300004303CA1A3A613A6940F21003C2F2000359
:10331000DA60D2E2FB6E012B40F0D18240F244032E
:10332000C2F200031B68002B00F0C982D7F884307A
:10333000002B40F0C48207F118031846FFF76AFD1E
:103340003B69002B03D14FF009033B6103E03B696C
:1033500003F1FF333B613A6940F21003C2F200030C
:10336000DA60ACE2D7F88430002B40F0AA824FF04C
:103370000103FB664FF000037B6640F24403C2F298
:1033800000031B68002B02D04FF01103BB627A6868
:1033900040F21003C2F200031A60BA6840F2100350
:1033A000C2F200035A60FA6840F21003C2F200034E
:1033B0009A603A6940F21003C2F20003DA607A6957
:1033C00040F21003C2F200031A617AE2D7F88430A7
:1033D000002B40F07882FB6E012B27D0012B50D3BD
:1033E000022B74D14FF000037B664FF01103BB62D8
:1033F0004FF000033B6612E03B6E4FEA830307F198
:103400009002D31853F8781C40F21003C2F2000364
:103410003A6E43F822103B6E03F101033B663B6EAC
:10342000042BE9DD4FF00003FB6650E04FF0000392
:103430007B6640F24403C2F200031B68002B02D0FB
:103440004FF01103BB624FF000033B6612E03B6E8E
:103450004FEA830307F19002D31853F8781C40F227
:103460001003C2F200033A6E43F822103B6E03F1E0
:1034700001033B663B6E042BE9DD4FF00003FB6666
:1034800025E040F24403C2F200031B68002B1DD06C
:103490007B6E002B14BF002301237B667B6E002B09
:1034A0000AD04FF00E03BB6240F21003C2F20003D9
:1034B0004FF00E021A6109E04FF01103BB6240F2B7
:1034C0001003C2F200034FF011021A6100BFFAE1CB
:1034D000FDF786F80346C7F88C30FB6E022B00F030
:1034E000F481FDF77DF80346BB634FF000037B6377
:1034F0004FF000037B6500E000BFFDF771F8024666
:10350000BB6BD31A7B634FF00B00FCF76AFF0346DB
:10351000002B21D07A6B40F283339A421CDC40F2BC
:103520004403C2F200031B68002B00F01A8142F230
:103530004C03C2F200031B68002B40F3148142F2DB
:103540004C03C2F200031B6803F1FF3242F24C034A
:10355000C2F200031A6006E17A6B40F283339A42AA
:1035600040F3E1807A6B41F293139A4200F3DB80DF
:103570007B6D002B40F0D7804FF001037B6542F25A
:103580004C03C2F200031B68002B40F3E68040F2BC
:103590004403C2F200031B68002B61D040F24403D5
:1035A000C2F200034FF000021A6007F1040318464C
:1035B000FFF728F90346C7F8803007F118031846CB
:1035C000FFF720F90346FB6742F24C03C2F2000307
:1035D0001B6803F1FF33BB6740F24803C2F20003EC
:1035E000BA6F53F8323007F1040210461946FFF75C
:1035F0005DF940F24802C2F20002BB6F4FEAC3031A
:10360000D3185B6807F1180210461946FFF74EF908
:103610004FF00F037B617B69BB624FF000033B659A
:103620004FF000033B6512E03B6D4FEA830307F167
:103630009002D31853F8781C40F21003C2F2000332
:103640003A6D43F822103B6D03F101033B653B6D7E
:10365000042BE9DDFB6EBB664FF00003FB667EE0EA
:1036600040F24403C2F200031B68002B77D140F202
:103670004403C2F200034FF001021A60BB6EFB6606
:1036800007F104031846D7F88010FFF70FF94FF041
:103690000A037B6107F118031846F96FFFF706F973
:1036A0004FF01103BB624FF00003FB64FB6E012B74
:1036B0001AD14FF00003FB6412E0FB6C4FEA830366
:1036C00007F19002D31853F88C1C40F21003C2F299
:1036D0000003FA6C43F82210FB6C03F10103FB6456
:1036E000FB6C042BE9DD1DE0FB6E002B37D14FF0A6
:1036F0000003FB6412E0FB6C4FEA830307F19002C6
:10370000D31853F8781C40F21003C2F20003FA6C8D
:1037100043F82210FB6C03F10103FB64FB6C042BE8
:10372000E9DD1CE01BE07B6D002B06D04FF00B00A9
:10373000FCF757FE0346002B17D17A6B41F2931327
:103740009A427FF7D9AE4FF00103C7F88430FCF7F7
:1037500047FF0346C7F8883008E000BF00E000BF1D
:10376000CAE600BF02E000BF00E000BFADE0FB6EB4
:10377000022B00F0AC80D7F88430002B40F0A780FB
:1037800040F24403C2F200031B68012B30D142F225
:103790004C03C2F200031C6807F104031846FFF74C
:1037A00031F8024640F24803C2F2000343F83420E5
:1037B00042F24C03C2F200031C6807F118031846DA
:1037C000FFF720F8014640F24802C2F200024FEA39
:1037D000C403D318596042F24C03C2F200031B68C1
:1037E00003F1010242F24C03C2F200031A606EE0E0
:1037F00040F24403C2F200031B68002B67D1BB6F89
:10380000002B04DDBB6F03F1FF33BB6707E042F21F
:103810004C03C2F200031B6803F1FF33BB6740F2A5
:103820004803C2F20003BA6F53F8323007F10402C2
:1038300010461946FFF73AF840F24802C2F2000279
:10384000BB6F4FEAC303D3185B6807F11802104639
:103850001946FFF72BF84FF00F037B617B69BB62C2
:103860004FF00003BB644FF00003BB6412E0BB6C7D
:103870004FEA830307F19002D31853F8781C40F203
:103880001003C2F20003BA6C43F82210BB6C03F1C0
:103890000103BB64BB6C042BE9DD4FF00003FB6646
:1038A00015E000BF14E000BF12E000BF10E000BF51
:1038B0000EE000BF0CE000BF0AE000BF08E000BF60
:1038C00006E000BF04E000BF02E000BF00E000BF70
:1038D000FB6E012B37D107F104031846FEF792FF68
:1038E00003467C2B0BDD7B68092B2CD1BB68002B9E
:1038F00029D0FB68002B26D03B69002B23D04FF04A
:1039000000037B607A6840F21003C2F200031A6081
:103910004FF00103BB60BA6840F21003C2F200032B
:103920005A604FF00203FB60FA6840F21003C2F2E3
:1039300000039A604FF005033B613A6940F21003BF
:10394000C2F20003DA60FB6E012B2CD107F10403F5
:103950001846FEF757FF0346B3F5FA5F23DD4FF035
:1039600008037B607A6840F21003C2F200031A6019
:103970004FF00003BB60BA6840F21003C2F20003CC
:103980005A604FF00003FB60FA6840F21003C2F285
:1039900000039A604FF000033B613A6940F2100364
:1039A000C2F20003DA60FB6E002B40F0CD8040F2E3
:1039B0004403C2F200031B68002B00F0C58040F2F4
:1039C0001003C2F200031B693B63FCF7DDFD0346F5
:1039D0007B64FCF7EFFD03463B64786C396CFFF7C2
:1039E00019F80346FB6340F23003C2F200031B7870
:1039F000012B1CD0022B5BD0002B40F09F80FB6B77
:103A0000012B07D140F23003C2F200034FF0010254
:103A10001A708EE0FB6BB3F1FF3F40F08A8040F2FA
:103A20003003C2F200034FF002021A7081E0FB6B18
:103A3000012B31D1FB69012B05D13B6A012B02D14E
:103A40007B6A002B06D007F1180318464FF00501DA
:103A5000FEF7CAFF4FF000033B6612E03B6E4FEAF1
:103A6000830307F19002D31853F8781C40F2100337
:103A7000C2F200033A6E43F822103B6E03F10103D9
:103A80003B663B6E042BE9DD40F23003C2F20003DB
:103A90004FF000021A704EE0FB6BB3F1FF3F4AD1CA
:103AA00040F23003C2F200034FF002021A7042E00B
:103AB000FB6B012B07D140F23003C2F200034FF041
:103AC00001021A7039E0FB6BB3F1FF3F35D1FB699E
:103AD0000C2B05D13B6A012B02D17B6A002B06D04F
:103AE00007F1180318464FF00501FEF767FF4FF086
:103AF00000033B6612E03B6E4FEA830307F190023E
:103B0000D31853F8781C40F21003C2F200033A6E47
:103B100043F822103B6E03F101033B663B6E042B1E
:103B2000E9DD40F23003C2F200034FF000021A70E8
:103B300003E000BF02E000BF00E000BF40F210035E
:103B4000C2F200033A6B1A617B6E002B0BD040F27D
:103B50004403C2F200031B68002B04D007F11803D2
:103B60001846FFF789F8D7F88430002B03D0D7F830
:103B70008C00FFF7C1F8D7F88430002B00F0CE801E
:103B8000FCF72EFD0246D7F88830D21A41F2931383
:103B90009A4240F2C38040F21003C2F200034FF099
:103BA0000B021A6140F21003C2F200031B69BB62F0
:103BB000BB6A7B61FFF778F9FCF712FD0346FB62F5
:103BC00000E000BFFCF70CFD0246FB6A03F5E16371
:103BD0009A4238D8FCF704FD0246FB6A03F5BA6343
:103BE00003F10C039A4202D9FFF734F9E9E7FCF735
:103BF000F7FC0246FB6A03F596639A4202D9FFF787
:103C000053F9DEE7FCF7ECFC0246FB6A03F561734F
:103C10009A4202D9FFF71EF9D3E7FCF7E1FC02460E
:103C2000FB6A03F516739A4202D9FFF73DF9C8E71C
:103C3000FCF7D6FC0246FB6A03F596739A42C0D99C
:103C4000FFF708F9BDE700BF4FF000037B604FF0BE
:103C50000103BB604FF00203FB604FF005033B61C3
:103C60004FF00A037B614FF00D03BB614FF00C0373
:103C7000FB614FF001033B624FF000037B624FF0AA
:103C80001103BB6240F21003C2F200034FF00002C6
:103C90001A6040F21003C2F200034FF000025A60B3
:103CA00040F21003C2F200034FF000029A6040F2AB
:103CB0001003C2F200034FF00002DA6040F210037A
:103CC000C2F200034FF00D021A6142F24C03C2F23D
:103CD00000034FF000021A604FF000037B6640F2D1
:103CE0004403C2F200034FF001021A604FF00003D8
:103CF000C7F884304FF00203FB6640F23403C2F28F
:103D000000034FF000021A6040F23403C2F20003D5
:103D10001A6840F23803C2F200031A60D7F8843000
:103D2000002B3FF453A94FF00B00FCF75AFB03465E
:103D3000002B3FF44BA940F23403C2F200034FF0D2
:103D400000021A6040F23403C2F200031A6840F223
:103D50003803C2F200031A604FF00003C7F8843042
:103D600040F24403C2F200031B68002B18D0FB6E24
:103D7000012B08D140F21003C2F200034FF00A02F7
:103D80001A61FFF723B9FB6E002B7FF41FA940F2E5
:103D90001003C2F200034FF011021A61FFF716B9C7
:103DA00040F21003C2F200034FF00F021A61FFF756
:103DB0000DB900BF0D0000000C0000000100000064
:103DC00000000000110000000000000001000000E1
:0C3DD00002000000050000000A000000D6
:103DDC0000000000000000000000000000000000D7
:103DEC0000000000000000000000000000000000C7
:103DFC000D000000000000000000000000000000AA
:103E0C0000000000000000000000000000000000A6
:04000005080000B936
:00000001FF
